:100000000C94E0000C9408010C9408010C94E20B91
:100010000C94E20B0C94E20B0C9408010C94080174
:100020000C9408010C9408010C9408010C9408012C
:100030000C9408010C9408010C9408010C9408011C
:100040000C94250A0C9408010C94950A0C946F0AE0
:100050000C9408010C9408010C9408010C940801FC
:100060000C94C70A0C94080100407A10F35A00A0BF
:10007000724E18090010A5D4E80000E87648170071
:1000800000E40B54020000CA9A3B000000E1F505B1
:10009000000080969800000040420F000000A086FB
:1000A00001000000102700000000E803000000002D
:1000B0006400000000000A000000000001000000D1
:1000C00000002C76D888DC674F0823DFC1DFAE59EB
:1000D000E1B1B796E5E3E453C63AE651997696E87E
:1000E000E6C28426EB898C9B62ED407C6FFCEFBC02
:1000F0009C9F40F2BAA56FA5F490055A2AF75C932D
:100100006B6CF9676DC11BFCE0E40D47FEF520E662
:10011000B500D0ED902E0300943577050080841E45
:10012000080000204E0A000000C80C333333330FA0
:10013000986E12831141EF8D2114893BE65516CF3D
:10014000FEE6DB18D1844B381BF77C1D901DA4BB49
:10015000E424203284725E228100C9F124ECA1E5FE
:100160003D2700000000240027002A0000000008AE
:10017000000201000003040700000000000000006E
:1001800000000000230026002900000000002500D8
:1001900028002B00040404040404040402020202E4
:1001A000020203030303030301020408102040803A
:1001B0000102040810200102040810205A0C181132
:1001C00011241FBECFEFD8E0DEBFCDBF12E0A0E00C
:1001D000B1E0E0E2F1E302C005900D92A030B1077A
:1001E000D9F723E0A0E0B2E001C01D92A43DB20720
:1001F000E1F710E0CFEDD0E004C02197FE010E94AE
:100200008B16CE3DD107C9F70E945A0D0C94831866
:100210000C940000CF92DF92EF92FF92CF93DF9386
:10022000B0919203A0E08111AB2F8091930390E0F5
:10023000880F991FAC0140585E4FC0909803D09032
:100240009903E0909A03F0909B0330E020E0FA01DC
:10025000C591D491E881B90190E080E0EB23EA13E5
:100260000AC02F5F3F4F6C157D058E059F0578F303
:100270006FEF7FEFCB01DF91CF91FF90EF90DF9099
:10028000CF90089590E0FC01E459FE4F2491FC01C9
:10029000E855FE4F3491FC01EC56FE4FE491EE23FD
:1002A000C9F0222339F0233001F1A8F4213019F1EB
:1002B000223029F1F0E0EE0FFF1FE657FE4FA59127
:1002C000B4918FB7F894EC91611126C030953E231C
:1002D0003C938FBF08952730A9F02830C9F024300F
:1002E00049F7809180008F7D03C0809180008F77D7
:1002F00080938000DFCF84B58F7784BDDBCF84B55A
:100300008F7DFBCF8091B0008F778093B000D2CFEC
:100310008091B0008F7DF9CF3E2BDACFCF93DF9362
:1003200090E0FC01E855FE4F24918C569E4FFC0155
:1003300084918823C9F090E0880F991FFC01EE5941
:10034000FE4FA591B491FC01E657FE4FC591D491A3
:1003500061110DC09FB7F8948C91209582238C93E6
:100360008881282328839FBFDF91CF910895623031
:1003700051F49FB7F8943C91822F809583238C93FE
:10038000E8812E2BEFCF8FB7F894EC912E2B2C9386
:100390008FBFEACF3FB7F8948091DA029091DB02E9
:1003A000A091DC02B091DD0226B5A89B05C02F3FCD
:1003B00019F00196A11DB11D3FBFBA2FA92F982F8B
:1003C0008827BC01CD01620F711D811D911D42E086
:1003D000660F771F881F991F4A95D1F708958F924E
:1003E0009F92AF92BF92CF92DF92EF92FF924B011A
:1003F0005C010E94CA016B017C010E94CA016C1958
:100400007D098E099F09683E734081059105A8F317
:1004100021E0821A9108A108B10888EEC80E83E095
:10042000D81EE11CF11C81149104A104B10429F728
:10043000FF90EF90DF90CF90BF90AF909F908F9004
:100440000895CF92DF92EF92FF920F931F93CF9375
:10045000DF93CDB7DEB7C054D1400FB6F894DEBFFE
:100460000FBECDBF2FB7F8948091DE029091DF02CE
:10047000A091E002B091E1022FBF4091940350910E
:10048000950360919603709197038C019D01041B65
:10049000150B260B370BB901A801403D57406105EC
:1004A000710590F480919C03C05CDE4F0FB6F89408
:1004B000DEBF0FBECDBFDF91CF911F910F91FF9097
:1004C000EF90DF90CF9008958093940390939503DD
:1004D000A0939603B093970310928F0310928E030C
:1004E00010928D0310928C0310928B0362E0809126
:1004F00090030E948E0161E070E080E090E00E9435
:10050000EF0161E0809190030E948E0160E0809194
:1005100090030E944201809191038551823020F521
:100520008BE291E10197F1F762E0809190030E94E4
:100530008E0180919D0390E08230910538F0880F04
:10054000991F880F991F05970197F1F7F89480E09C
:100550000E940A016F3F7F4F8F4F9F4F61F41092AF
:100560009C03789480E0A0CF64E170E080E090E0AC
:100570000E94EF01D9CF81E00E940A016F3F7F4FB7
:100580008F4F9F4F61F38E010F5F1F4F6E018FEBF7
:10059000C81A8EEFD80A780180E00E940A01F7019C
:1005A000608371838283938381E00E940A01F70153
:1005B0006483758386839783F8E0EF0EF11CEC1457
:1005C000FD0451F7789430E020E0F801C080D1803C
:1005D000E280F3804481558166817781FFEFCF16F9
:1005E000DF06EF06FF0631F04F3F8FEF5807680731
:1005F000780719F410929C03B5CFF90183E0F595C3
:10060000E7958A95E1F7E557FC4F8081880FC4167E
:10061000D506E606F70610F180832F5F3F4F085F8F
:100620001F4F2832310589F640918F0320918B03AB
:1006300080918C03280F3327331F80918D03280F5F
:10064000311D80918E03820F932F911D992748179A
:10065000190681F681E080939C0326CF8160DCCF70
:10066000AF92BF92CF92DF92EF92FF920F931F93C0
:10067000CF93DF936C017B018B01040F151FEB01FE
:100680005E01AE18BF08C017D10759F06991D601B5
:10069000ED91FC910190F081E02DC6010995892B27
:1006A00079F7C501DF91CF911F910F91FF90EF90E6
:1006B000DF90CF90BF90AF900895FC01538D448D93
:1006C000252F30E0842F90E0821B930B541710F0FD
:1006D000CF96089501970895FC01918D828D98170A
:1006E00061F0A28DAE0FBF2FB11D5D968C91928DE2
:1006F0009F5F9F73928F90E008958FEF9FEF089513
:10070000FC01918D828D981731F0828DE80FF11DDB
:10071000858D90E008958FEF9FEF0895FC01918DF6
:10072000228D892F90E0805C9F4F821B91098F73EF
:100730009927089582EE92E00E948E0321E0892B92
:1007400009F420E0822F089580E090E0892B29F0C1
:100750000E949A0381110C9400000895FC01A48D5D
:10076000A80FB92FB11DA35ABF4F2C91848D90E0D3
:1007700001968F739927848FA689B7892C93A089B6
:10078000B1898C91837080648C93938D848D981340
:1007900006C00288F389E02D80818F7D80830895D3
:1007A000EF92FF920F931F93CF93DF93EC0181E0C1
:1007B000888F9B8D8C8D98131AC0E889F989808168
:1007C00085FF15C09FB7F894EE89FF896083E8899B
:1007D000F98980818370806480839FBF81E090E08D
:1007E000DF91CF911F910F91FF90EF900895F62E1A
:1007F0000B8D10E00F5F1F4F0F731127E02E8C8DB4
:100800008E110CC00FB607FCFACFE889F9898081F8
:1008100085FFF5CFCE010E94AE03F1CFEB8DEC0F3B
:10082000FD2FF11DE35AFF4FF0829FB7F8940B8F15
:10083000EA89FB8980818062CFCFCF93DF93EC017F
:10084000888D8823B9F0AA89BB89E889F9898C91B8
:1008500085FD03C0808186FD0DC00FB607FCF7CF74
:100860008C9185FFF2CF808185FFEDCFCE010E9474
:10087000AE03E9CFDF91CF9108951F93CF93DF931C
:10088000C1E0C0936A02882399F1D091B800109119
:10089000BA008091BC008A7B8093BC0060E082E15A
:1008A0000E94420160E083E10E9442011092AF0287
:1008B000C093B1021092B00261E082E10E94420155
:1008C00061E083E10E9442018091B9008E7F8093B4
:1008D000B9008091B9008D7F8093B90088E480933E
:1008E000B80085E48093BC001093BA00D093B800A0
:1008F000DF91CF911F91089520918B02260F33270E
:10090000331F21323105ECF42091AF02FC0190E05D
:1009100080E0243069F082E00895A0918B0221915B
:10092000AC0145595D4FA40FB52FB11D2C93019615
:10093000861798F380918B02680F60938B0280E09A
:10094000089581E0089508958FEF9FEF08958FEF48
:100950009FEF08958091640290E0919581959109AF
:100960000895CF92DF92EF92FF920F931F93CF9350
:10097000DF937C01CB018A0120916302222389F05D
:10098000EB016B01C40ED51ECC15DD0569F0699134
:10099000D701ED91FC910190F081E02DC7010995FF
:1009A000F3CF642F0E947C04C801DF91CF911F9187
:1009B0000F91FF90EF90DF90CF900895CF93DF934A
:1009C0001F92CDB7DEB76983209163022223F9F02D
:1009D00020916202203258F021E030E0FC013383A4
:1009E000228390E080E00F90DF91CF910895809175
:1009F0006102E82FF0E0EF5BFD4F998190838F5FFC
:100A0000809361028093620281E090E0ECCF61E02C
:100A1000CE0101960E947C04F7CFCF92DF92EF9235
:100A2000FF920F931F93CF93DF93FC01C48121E0CA
:100A300020936302C09340021092610210926202FE
:100A40008485682B8FE793E00E94DE04D0916202D8
:100A5000D13208F092C00E94CA016B017C018091E2
:100A6000AF02811165C082E08093AF0281E0809384
:100A7000B1028FEF8093AE021092D302D093D202D4
:100A8000A1E4B2E0E2EBF2E080E0D81385C010927E
:100A9000D4028091D402CC0FC82BC093D402809191
:100AA000B002813009F07CC01092B0020E94CA01ED
:100AB0006B017C018091D4028093BB00809166021F
:100AC00090916702A0916802B0916902892B8A2BEC
:100AD0008B2B99F00E94CA01009166021091670267
:100AE00020916802309169026C197D098E099F0975
:100AF0000617170728073907E0F18091BC0083FD2E
:100B0000D9CF85EC8093BC000E94CA016B017C01A7
:100B10008091AF02823009F445C08091AE028F3FD0
:100B200061F18091AE02803241F18091AE0225C028
:100B30008091660290916702A0916802B09169026B
:100B4000892B8A2B8B2B09F48ACF0E94CA01009132
:100B500066021091670220916802309169026C1957
:100B60007D098E099F09061717072807390708F01E
:100B700076CF809165020E943D041092610210922E
:100B8000620210926302DF91CF911F910F91FF904B
:100B9000EF90DF90CF9008959D9191938F5F75CFE7
:100BA00085EEB0CF8091660290916702A0916802B5
:100BB000B0916902892B8A2B8B2B09F4A9CF0E9453
:100BC000CA0100916602109167022091680230917B
:100BD00069026C197D098E099F09061717072807F6
:100BE000390708F095CFC5CF08952091D7023091ED
:100BF000D8022817390771F49091D5028091D60256
:100C0000981741F0E091D502F0E0E050FE4F80816E
:100C100090E008958FEF9FEF0895EF92FF920F936A
:100C20001F93CF93DF93DC015C96ED90FC905D9772
:100C3000E114F10479F481E090E013969C938E9393
:100C4000129790E080E0DF91CF911F910F91FF907C
:100C5000EF9008955196ED91FC91529750968C919A
:100C60005097982F90950FB75E962C915E97122F04
:100C7000127021FD6095F8942081112319F1282B21
:100C80002083E7012197F1F728E0462F50E03081DB
:100C900060FF1AC0382B3083E7012197F1F7BA01C2
:100CA00075956795215089F7112381F080818923FB
:100CB00080830FBF5C968D919C910197F1F781E045
:100CC00090E0C1CF2923DCCF3923E5CF9081892B58
:100CD000EFCF2091D7023091D8022817390761F45D
:100CE0008091D6022091D50290E0805C9F4F821BBC
:100CF00091098F739927089590E080E008952091DD
:100D0000D7023091D80228173907B9F49091D5024B
:100D10008091D602981789F0E091D502F0E0E0507A
:100D2000FE4F80812091D50230E02F5F3F4F2F731F
:100D300033272093D50290E008958FEF9FEF089519
:100D40002FB7F8948091DE029091DF02A091E0022B
:100D5000B091E1022FBF8093A6039093A703A093C5
:100D6000A803B093A9038EE993E00E947F0697FF42
:100D700026C02FB7F8948091DE029091DF02A091F7
:100D8000E002B091E1022FBF4091A6035091A7036A
:100D90006091A8037091A903841B950BA60BB70B58
:100DA0004091A2035091A3036091A4037091A50305
:100DB00084179507A607B707B0F28FEF9FEF089546
:100DC00090E080E008950F931F93CF938C01C62F7E
:100DD0000E940D056C2F6460C8010E940D056C2FE8
:100DE0006B7FC8010E940D0583EC90E00197F1F73D
:100DF000CF911F910F9108950F931F93CF93DF937E
:100E00008C01D62FC42F607F642B0E94E30680E103
:100E1000D89FB00111246C2BC801DF91CF911F9195
:100E20000F910C94E30641E00E94FC0681E090E003
:100E30000895CF93DF93CDB7DEB728970FB6F89418
:100E4000DEBF0FBECDBF98E0E6E0F1E0DE01119617
:100E500001900D929A95E1F79091CB03981708F4C1
:100E60008FEF90E0880F991F21E030E02C0F3D1F9D
:100E7000820F931FFC016081606840E083EC93E087
:100E800028960FB6F894DEBF0FBECDBFDF91CF918D
:100E90000C94FC0640E061E083EC93E00E94FC06C9
:100EA0008BE39FE10197F1F78091CC03882319F040
:100EB00080E00C9419070895FB0101900020E9F7E8
:100EC0003197AF01461B570BDC01ED91FC9102807D
:100ED000F381E02D09948F929F92AF92BF920F936E
:100EE0001F93CF93DF93CDB7DEB7A1970FB6F894DA
:100EF000DEBF0FBECDBF19A2423008F44AE08E011A
:100F00000F5D1F4F842E912CB12CA12CA5019401B3
:100F10000E943B15E62FB901CA01EA3004F5E05DF5
:100F2000D801EE938D01232B242B252B79F790E00C
:100F300080E0109729F0BD0183EC93E00E945C07EC
:100F4000A1960FB6F894DEBF0FBECDBFDF91CF9153
:100F50001F910F91BF90AF909F908F900895E95C83
:100F6000DFCF4F925F926F927F928F929F92AF925C
:100F7000BF92CF92DF92EF92FF920F931F93CF9386
:100F80006B017C01742EAC019B010E947F1660E511
:100F900071E0811126C046015701E894B7F82FEFA0
:100FA0003FEF4FE75FE7C501B4010E947F16811153
:100FB0000CC02FEF3FEF4FE75FE7C501B4010E9480
:100FC000C11364E571E0181664F02FEF3FEF4FE7AF
:100FD0005FE4C701B6010E947A161816ACF468E502
:100FE00071E083EC93E0CF911F910F91FF90EF9010
:100FF000DF90CF90BF90AF909F908F907F906F9039
:101000005F904F900C945C072FEF3FEF4FE75FEC42
:10101000C701B6010E94C11387FDE1CF20E030E097
:10102000A901C701B6010E94C11310E000E087FFCB
:101030000CC041E06DE283EC93E00E94FC06F7FAFD
:10104000F094F7F8F09401E010E0C0E060E070E0A8
:1010500080E09FE37C1641F020E030E040E251E484
:101060000E94D915CF5FF6CFA70196010E946D159A
:101070004B015C010E944B162B013C014AE00E948F
:101080006B07080F191FCC23C9F1C301B2010E94DD
:10109000C6139B01AC01C501B4010E946C154B0144
:1010A0005C0141E06EE283EC93E00E94FC060F5F7E
:1010B0001F4FC15018F120E030E040E251E4C5017B
:1010C000B4010E9427142B013C010E944B164B01D6
:1010D000B12CA12C4AE0C501B4010E946B07080F96
:1010E000191FC501B4010E94C6139B01AC01C301C5
:1010F000B2010E946C154B015C01DBCFC801CF919E
:101100001F910F91FF90EF90DF90CF90BF90AF9025
:101110009F908F907F906F905F904F900895CF93A6
:10112000DF93FC01448155816081718182EE92E000
:101130000E943003EC016CE571E082EE92E00E94C7
:101140005C078C0F9D1FDF91CF9108950F931F9324
:10115000CF93DF93EC010E945C078C016CE571E09A
:10116000CE010E945C07800F911FDF91CF911F91EC
:101170000F9108950F931F93CF93DF93EC01888114
:101180009981009759F02A813B812617370730F063
:1011900081E0DF91CF911F910F9108958B016F5FD7
:1011A0007F4F0E94B617009759F0998388831B835D
:1011B0000A832C813D81232B59F7FC011082E8CF53
:1011C00080E0E7CFEF92FF920F931F93CF93DF93CF
:1011D0006115710541F480E0DF91CF911F910F916E
:1011E000FF90EF90089541155105B1F07B01EC019E
:1011F0000C811D81040F151FB8010E94BA088823B5
:1012000051F3288139818C819D81B701820F931F11
:101210000E947C181D830C8381E0DECFCF93DF9387
:10122000EC0188819981009711F00E942D17198295
:1012300018821D821C821B821A82DF91CF91089531
:10124000CF93DF93EC01FB0101900020E9F7319788
:10125000AF01461B570B0E94E208811103C0CE016B
:101260000E940E09CE01DF91CF910895CF93DF93B5
:10127000EC01FB0144815581608171810E94E2088B
:10128000811103C0CE010E940E09CE01DF91CF91E2
:101290000895EF92FF920F931F93CF93DF93EC018A
:1012A0007B018A01BA010E94BA0881110BC0CE01EC
:1012B0000E940E09CE01DF91CF911F910F91FF90F7
:1012C000EF9008951D830C83B701888199810E9456
:1012D0007C18F0CFEF92FF920F931F93CF93DF9381
:1012E000CDB7DEB7A1970FB6F894DEBF0FBECDBF66
:1012F0007C01CB01BA01F7011182108213821282A4
:10130000158214828E010F5F1F4F22E044E00E947D
:1013100037110097C9F0FC0101900020E9F73197DF
:10132000AF01481B590BBC01C7010E944909A19696
:101330000FB6F894DEBF0FBECDBFDF91CF911F91E6
:101340000F91FF90EF900895C7010E940E09EFCF13
:101350000F931F93CF93DF9300D0CDB7DEB78C01EF
:10136000FC0111821082138212821582148250E0D5
:1013700040E06EE571E00E9449090E94A00697FDD9
:101380000BC089831A8241E050E0BE016F5F7F4F3E
:10139000C8010E94E208F1CFC8010F900F90DF91C1
:1013A000CF911F910F910895FC0111821082138239
:1013B000128215821482FB0101900020E9F7319717
:1013C000AF01461B570B0C944909FC0180819181A8
:1013D000009711F00C942D17089585ED8093BC00B3
:1013E0008091660290916702A0916802B0916902B3
:1013F0000796A11DB11D23E0B695A79597958795F2
:101400002A95D1F72091BC0024FD03C01092AF02B1
:101410000895409166025091670260916802709150
:101420006902452B462B472B69F30097A105B105AF
:1014300041F02AE22A95F1F700C00197A109B1090C
:10144000E1CF809165020C943D041F920F920FB67C
:101450000F9211242F933F938F939F93AF93BF933A
:101460008091DE029091DF02A091E002B091E10252
:101470003091D90223E0230F2D3758F50196A11D95
:10148000B11D2093D9028093DE029093DF02A093D6
:10149000E002B093E1028091DA029091DB02A09128
:1014A000DC02B091DD020196A11DB11D8093DA022C
:1014B0009093DB02A093DC02B093DD02BF91AF9169
:1014C0009F918F913F912F910F900FBE0F901F9082
:1014D000189526E8230F0296A11DB11DD2CF1F92A9
:1014E0000F920FB60F9211242F933F934F935F9358
:1014F0006F937F938F939F93AF93BF93EF93FF93DC
:1015000082EE92E00E94AE03FF91EF91BF91AF9106
:101510009F918F917F916F915F914F913F912F910B
:101520000F900FBE0F901F9018951F920F920FB63D
:101530000F9211242F938F939F93EF93FF93E0913A
:10154000F202F091F3028081E091F802F091F90249
:1015500082FD1BC090818091FB028F5F8F73209171
:10156000FC02821741F0E091FB02F0E0EE51FD4FEA
:10157000958F8093FB02FF91EF919F918F912F9117
:101580000F900FBE0F901F9018958081F4CF1F927F
:101590000F920FB60F9211242F933F934F935F93A7
:1015A0006F937F938F939F93AF93BF93EF93FF932B
:1015B0008091B900887F803609F44AC0F0F58832FE
:1015C00009F4A5C018F5803109F499C0B8F488234E
:1015D00009F4F5C0883009F492C0FF91EF91BF91F2
:1015E000AF919F918F917F916F915F914F913F91BB
:1015F0002F910F900FBE0F901F901895883109F40E
:1016000086C0803251F78093AE0214C0803409F452
:101610009BC040F48033B9F38833F9F68093AE026F
:1016200085ECAEC0803509F483C0883509F494C0D8
:10163000883499F60E94ED09D0CF883909F48AC020
:1016400038F5883729F050F4883611F0803729F6BC
:1016500083E08093AF021092AD0255C0883809F440
:1016600079C0803919F0803809F0B7CF8091AD0288
:10167000803208F06FC0E091AD0281E08E0F809360
:10168000AD028091BB00F0E0E357FD4F80833BC08B
:10169000803B39F0D0F4803A09F477C0883A09F0F9
:1016A0009CCF84E08093AF0210928C0210928B0248
:1016B000F0E0E0E0099580918B0281110FC081E09C
:1016C00080938B0210926B0209C0803C09F4A8CF72
:1016D000883C09F4A5CF883B09F07FCFE0918C02CC
:1016E00081E08E0F80938C02F0E0E559FD4F808100
:1016F0008093BB0090918C0280918B0229C08091D5
:10170000D4028093BB0085EC8093BC0066CF90919F
:10171000D3028091D202981758F5E091D30281E06C
:101720008E0F8093D302F0E0EE54FD4F8081E9CF1D
:10173000E091D30281E08E0F8093D3028091BB00B1
:10174000F0E0EE54FD4F80839091D3028091D2025D
:101750009817C8F285E8D8CFE091D30281E08E0FC8
:101760008093D3028091BB00F0E0EE54FD4F808364
:101770008091B10281115ECF81E08093B00284EA52
:101780008093BC001092AF0228CF85EC8093BC0000
:101790001092AF028091AD02803230F4E091AD0240
:1017A000F0E0E357FD4F10826091AD0270E08DE8EC
:1017B00092E0F0E0E0E009951092AD020ECF1092B9
:1017C000AE0238CF1F920F920FB60F9211242F93B3
:1017D0003F934F935F936F937F938F939F93AF93B9
:1017E000BF93EF93FF93E091D702F091D802309727
:1017F00049F0A685B7858585968D91FF14C09C918B
:101800008923A1F4FF91EF91BF91AF919F918F91A7
:101810007F916F915F914F913F912F910F900FBEEC
:101820000F901F9018959C91892361F7A389B48923
:101830009C918589809589238C93868997890197C6
:10184000F1F7608D718DA685B785558538E020E06C
:10185000CB010197F1F7822F90E095958795282F7E
:101860004C91452309F02068315091F7868D81FD18
:1018700020958091D60290E001968F739927309140
:10188000D502381799F0A091D602B0E0A050BE4F13
:101890002C938093D602828D938D0197F1F7A389C3
:1018A000B4898C919589892B8C93ACCF868D81607E
:1018B000868FF1CFCF92DF92EF92FF921092E502E6
:1018C0001092E40298EEC92E93E0D92EE12CF12C6F
:1018D000C092E602D092E702E092E802F092E902BA
:1018E00082E191E09093E3028093E20285EC90E044
:1018F0009093EF028093EE0284EC90E09093F102DB
:101900008093F00280EC90E09093F3028093F202D7
:1019100081EC90E09093F5028093F40282EC90E0E9
:101920009093F7028093F60286EC90E09093F90290
:101930008093F8021092FB021092FC021092FD02BA
:101940001092FE021092820310928103C0928303D0
:10195000D0928403E0928503F092860384E291E0C2
:101960009093800380937F031092C6031092C50367
:1019700088E491E09093C4038093C3031092CC0356
:1019800087E28093C70380E18093CD0382E0809358
:10199000CE031092CF036FE571E08DEB93E00E94D0
:1019A000D4091092A1031092A003C092A203D09276
:1019B000A303E092A403F092A50386E391E0909341
:1019C0009F0380939E031092B5031092B40310926C
:1019D000B7031092B6031092B9031092B803109295
:1019E000BB031092BA036091BC036E7F6D7F60935E
:1019F000BC036695617081E068278BE00E9442011C
:101A000061E08BE00E948E01E3EBF1E0E491E09372
:101A1000AE03EFE9F1E0E491F0E0EE0FFF1FE657CF
:101A2000FE4F859194919093B0038093AF0360E053
:101A30008AE00E948E018091BC0381FD04C061E0B8
:101A40008AE00E9442018AE08093AA03E2EBF1E07F
:101A5000E491E093AB03EEE9F1E0E491F0E0EE0F06
:101A6000FF1FE058FE4F859194919093AD038093B2
:101A7000AC0381E1809390038BE080939103E9EBC9
:101A8000F1E0E491E0939203E5EAF1E0E491E09380
:101A9000930380E89EE3A0E0B0E0809398039093E6
:101AA0009903A0939A03B0939B03FF90EF90DF906C
:101AB000CF900895CF93DF93CDB7DEB769970FB678
:101AC000F894DEBF0FBECDBF789484B5826084BD2C
:101AD00084B5816084BD85B5826085BD85B5816032
:101AE00085BD80916E00816080936E0010928100B0
:101AF000809181008260809381008091810081606B
:101B0000809381008091800081608093800080912B
:101B1000B10084608093B1008091B00081608093B7
:101B2000B00080917A00846080937A0080917A007E
:101B3000826080937A0080917A00816080937A003D
:101B400080917A00806880937A001092C100E091C1
:101B5000F202F091F30282E08083E091EE02F091D4
:101B6000EF021082E091F002F091F1028FEC80839D
:101B70001092FA02E091F602F091F70286E080837B
:101B8000E091F402F091F502808180618083E09120
:101B9000F402F091F502808188608083E091F40284
:101BA000F091F502808180688083E091F402F091E9
:101BB000F50280818F7D80831092B9031092B80363
:101BC0001092B7031092B6031092B5031092B403AB
:101BD0008DE991E09093BB038093BA039091AA039F
:101BE000963108F047C02DEB30E03093B5032093D9
:101BF000B4032BE931E03093B7032093B6032CE212
:101C000031E03093B9032093B8032091680084E059
:101C1000983048F031E09E3008F430E081E001C0B7
:101C2000880F3A95EAF7822B809368002DE630E022
:101C3000983050F02BE630E09E3030F02CE630E06B
:101C4000963110F030E020E03093B2032093B103DE
:101C5000292F30E0983008F080C181E001C0880F62
:101C60009A95EAF78093B3038091BA039091BB03EE
:101C70000197F1F78091B8039091B903892B49F14D
:101C8000E091D702F091D80223E0EE39F20709F192
:101C9000309739F0A389B4899C91858980958923EF
:101CA0008C938091BC038E7F8093BC031092D602EC
:101CB0001092D5028EE993E09093D8028093D702D8
:101CC000E091B103F091B20380819091B303892B2D
:101CD000808362E0809190030E948E012FB7F89478
:101CE0008091DE029091DF02A091E002B091E102CA
:101CF0002FBF805D9740A109B10980939403909311
:101D00009503A0939603B093970387E380939D0375
:101D10008091C80388608093C80362E0F62EF09239
:101D2000CB0362E370E080E090E00E94EF016091FD
:101D3000CF0383EC93E00E940D0568EE73E080E032
:101D400090E00E94EF0160E383EC93E00E94E306E1
:101D50000BE416E4C8010197F1F760E383EC93E02C
:101D60000E94E306C8010197F1F760E383EC93E07A
:101D70000E94E30683E592E00197F1F760E283ECCD
:101D800093E00E94E3066091C803606240E083EC48
:101D900093E00E94FC0684E08093C90340E06CE07D
:101DA00083EC93E00E94FC060E944A07F092CA036B
:101DB00040E066E083EC93E00E94FC0640E062E0D5
:101DC00083EC93E00E94FC068BE39FE10197F1F71F
:101DD00088E08093CF0360E083EC93E00E940D05E0
:101DE00061E088E00E948E0161E087E00E948E0140
:101DF0006AE671E082EE92E00E94A60864E871E073
:101E00008EE993E00E94A60868EE73E080E090E01F
:101E10000E94EF018EE993E00E946906892B61F030
:101E2000CE0101960E94A809CE0101960E948F085A
:101E3000CE0101960E94E50967E871E08EE993E022
:101E40000E94A60868EE73E080E090E00E94EF0137
:101E50008EE993E00E946906892B61F0CE0101961C
:101E60000E94A809CE0101960E948F08CE0101961A
:101E70000E94E5094CEB442E42E0542E612C712C5B
:101E80008E010F5F1F4F50E0252E50E0352E61E090
:101E900087E00E94420180E480937C0080917A0078
:101EA000806480937A0080917A0086FDFCCFE09078
:101EB0007800F090790060E087E00E9442011C8A7F
:101EC0001B8A1E8A1D8A188E1F8A24E630E0D701DD
:101ED0000E948416A30192010E94E514C9014AE000
:101EE000B8010E945511F80101900020E9F73197DF
:101EF000AF01401B510BB801CE0143960E94490926
:101F000061E971E0C8010E94D409BE016D5E7F4F96
:101F1000C8010E9436096FE971E00E9420090E9401
:101F20008F08C8010E94E509CE0143960E94E50989
:101F30000E942102882351F0809191038B3030F070
:101F40008D30C0F08551823008F446C0812C912C30
:101F500030ECA32E3FE7B32E2BC09E3040F4285028
:101F6000310981E001C0880F2A95EAF77BCE2E5017
:101F70003109F7CF60918C0370E090E080E00E941F
:101F8000C8132DEC3CEC4CEC5DE30E9427146B0174
:101F90007C0160918B0370E090E080E00E94C813A8
:101FA0009B01AC01C701B6010E946D154B015C019C
:101FB0000E942102882309F476C0809191038C301D
:101FC00009F4EAC0D8F48B3099F1C12CD12C90ECF3
:101FD000E92E9FE7F92E57C060918B0370918C0317
:101FE00076276727762790E080E00E94C6132DECC5
:101FF0003CEC4CEC5DE30E942714D8CF8551823035
:1020000020F780918D03898F682F70E0762F6627E7
:1020100066277F7780918E03682B90E080E00E9496
:10202000C6132DEC3CEC4CEC5DE30E942714D1C0B0
:1020300060918D0370E090E080E00E94C6136B0118
:102040007C0120918E03298F27FF0AC0AC019B01E0
:1020500060E070E080E89FEB0E946C156B017C01F2
:10206000698D6F7070E090E080E00E94C8132DECE5
:102070003CEC4CEC5DE30E942714A70196010E9402
:102080006D156B017C01A5019401C501B4010E948D
:102090007F16811108C0A7019601C701B6010E94F1
:1020A0007F16882371F061EA71E082EE92E00E946F
:1020B000A608812C912C80E8A82E8FEBB82E7501F4
:1020C00064010E944A0720E030E040E85FEBC7016E
:1020D000B6010E94C113882351F020E030E040E8AF
:1020E0005FEBC501B4010E94C11381117CC080E087
:1020F0000E94190760EC71E083EC93E00E945C079A
:10210000B701A601C8010E946A0963EE71E0CE0121
:1021100043960E94D409B801CE0143960E94360925
:1021200066ED71E00E9420090E948F08CE0143965F
:102130000E94E509C8010E94E509B501A401C80192
:102140000E946A0963EF71E0CE0143960E94D409B0
:10215000B801CE0143960E9436096FE971E00E94F2
:1021600020090E948F08CE0143960E94E509C8010C
:102170000E94E50960ED77E080E090E00E94EF01C9
:102180002114310409F483CE0E949A03882309F4B0
:102190007ECE0E9400007BCE80918D03898F682FB8
:1021A00070E090E080E00E94C6136B017C016091BA
:1021B0008E036F7070E090E080E00E94C8132DECF9
:1021C0003CEC4CEC5DE30E942714A70196010E94B1
:1021D0006D156B017C01298D27FF55CFF7FAF0941F
:1021E000F7F8F09450CF80E00E9419076EEC71E090
:1021F00083EC93E00E945C0742E0C701B6010E94B5
:10220000B10765ED71E083EC93E00E945C0781E02B
:102210000E94190768ED71E083EC93E00E945C076F
:1022200042E0C501B4010E94B1076FE971E064CFDB
:1022300086E391E090939F0380939E038091D70261
:102240009091D8028E59934071F4E091B103F091CE
:10225000B20390818091B30380958923808310928B
:10226000D8021092D7028DEB93E00C94E509EF921F
:102270000F931F93CF93DF93E80134E047FD34E1E0
:10228000042E000C550B57FF03C051954195510981
:10229000E32E022F242FAE010E947A11CE01DF918E
:1022A000CF911F910F91EF900895BB274A3031F4E1
:1022B000992322F4BDE2909581959F4F0C94611172
:1022C000BB27FB015527AA27880F991FAA1FA41710
:1022D00010F0A41B83955051B9F7A05DAA3308F004
:1022E000A95DA193009779F7B111B1931192CB0138
:1022F0000C94B113A9E0B0E0E0E8F1E10C940A1508
:102300006A01F22EB02E102FFBE3AF2EA01608F4B8
:102310001BE31F5F012F27E0AE014F5F5F4F0E945D
:10232000D912BC018981982F9970913009F43FC06E
:102330009BE2E1FC04C09E2D9170E0FC3AC05E2D52
:102340005071E82FE87083FF46C084E0911101C00E
:1023500083E0EF2DE81B8F1508F0E0E0D6018E2F0B
:1023600020E2552351F1992329F0D6019C93C6010F
:1023700001966C0196012D5F3F4FE2FE24C08EE472
:10238000D6018C9391E411969C93119712968C939D
:10239000D9018E2F90E281111BC0E20FF32FF11DA6
:1023A00010828EEF9FEF2996ECE00C9426159DE2AB
:1023B000C6CF90E2C4CF2D9381508111FCCFCE0EB9
:1023C000D11CE0E0D0CF8EE6D6018C9391E6DBCF36
:1023D0009D938150E0CF482F447082FF3DC084E040
:1023E000911101C083E08F1510F4EF2DE81BD60189
:1023F0008E2F20E2552309F1992329F0D6019C93D1
:10240000C60101966C0196012D5F3F4FE2FE1BC095
:1024100089E4D6018C938EE411968C93119786E40F
:1024200012968C93D9018E2F90E2882309F4B5CFB0
:102430009D938150FACF2D9381508111FCCFCE0E08
:10244000D11CE0E0D9CF89E6D6018C938EE61196B7
:102450008C93119786E6E4CF9B0177FF02C030E0B2
:1024600020E0A1E0B0E0911102C0B0E0A0E0F901ED
:102470003196AE0FBF1F8B2C912CBB2009F461C08D
:102480005401EFEFAE1ABE0AAA0DBB1DFA161B06C9
:1024900019F014F04F2D4A1B511188C0E3FC59C0AC
:1024A0007601A42FB0E2A1114FC0C40ED11C992314
:1024B00009F45BC040E0D6011196F60190836D01EE
:1024C000552309F448C0012F060F9A81582F5071E7
:1024D00084FF03C0913309F4015010160CF047C07B
:1024E000093008F008E0EEE2FE2E5B01A01AB10808
:1024F00085019194819491082F3F320729F4D601E8
:10250000FC92F60131966F016217730794F102177E
:1025100013077CF5DB01A21BB30BAA24A394B12CF7
:10252000AC0EBD1EAA0DBB1D11968C912150310918
:10253000D601119628153905F4F0F60180836D0156
:10254000DBCFB12CA12CA0CFF701B1937F01A1501B
:10255000AACF9111B0CFD601942F50E302C05D9362
:1025600091509111FCCFC40ED11C40E0ACCF01E0E2
:10257000BACF80E3DBCF6217730731F4963388F468
:10258000953311F4552369F0F6018083FD01842F02
:1025900090E2811108C0A40FB11D1C9290E080E070
:1025A00002CF81E3F1CF91938150F3CF911183CF8B
:1025B0008ACF283008F027E03327DA01990F311D40
:1025C00087FD916000966105710539F432602E5FD8
:1025D0003D9330E32A95E1F708959F3F30F080382E
:1025E0007105610509F03C5F3C5F3D93913008F057
:1025F0008068911DDF93CF931F930F93FF92EF920B
:10260000192F987F9695E92F96959695E90FFF27B4
:10261000EE53FF4F99273327EE24FF24A701E7014C
:1026200005900894079428F4360FE71EF81E491FFA
:10263000511D660F771F881F991F0694A1F70590FB
:10264000079428F4E70EF81E491F561FC11D770F87
:10265000881F991F661F0694A1F70590079428F418
:10266000F80E491F561FC71FD11D880F991F661FDF
:10267000771F0694A1F70590079420F4490F561F81
:10268000C71FD81F990F661F771F881F0694A9F7C9
:1026900084911095177041F0D695C7955795479539
:1026A000F794E7941A95C1F7E8E6F0E0689415907E
:1026B000159135916591959105907FE27395E1189B
:1026C000F10A430B560BC90BD009C0F7E10CF11E00
:1026D000431F561FC91FD01D7EF4703311F48A9515
:1026E000E6CFE894015030F0080F0AF400270217F3
:1026F00008F4202F2395022F7A3328F079E37D9375
:102700002A95E9F710C07D932A9589F60694979546
:102710006795379517951794E118F10A430B560BF7
:10272000C90BD00998F023957E9173957A3308F000
:1027300070E37C932013B8F77E9170617D9330F045
:10274000839571E37D9370E32A95E1F71124EF906F
:10275000FF900F911F91CF91DF91992787FD909561
:102760000895DC01FC01672F71917723E1F732971F
:1027700004C07C916D9370836291AE17BF07C8F35C
:1027800008950E94031408F481E00895E89409C0B4
:1027900097FB3EF490958095709561957F4F8F4F94
:1027A0009F4F9923A9F0F92F96E9BB279395F695AA
:1027B000879577956795B795F111F8CFFAF4BB0F28
:1027C00011F460FF1BC06F5F7F4F8F4F9F4F16C08C
:1027D000882311F096E911C0772321F09EE8872F16
:1027E000762F05C0662371F096E8862F70E060E0D2
:1027F0002AF09A95660F771F881FDAF7880F96954B
:10280000879597F90895990F0008550FAA0BE0E8EE
:10281000FEEF16161706E807F907C0F012161306A2
:10282000E407F50798F0621B730B840B950B39F4E2
:102830000A2661F0232B242B252B21F408950A2648
:1028400009F4A140A6958FEF811D811D08950E9476
:102850003A140C94AB140E949D1438F00E94A414F6
:1028600020F0952311F00C9494140C949A141124D4
:102870000C94DF140E94BC1470F3959FC1F3950F64
:1028800050E0551F629FF001729FBB27F00DB11DF4
:10289000639FAA27F00DB11DAA1F649F6627B00D84
:1028A000A11D661F829F2227B00DA11D621F739F6D
:1028B000B00DA11D621F839FA00D611D221F749F7B
:1028C0003327A00D611D231F849F600D211D822FC2
:1028D000762F6A2F11249F5750409AF0F1F08823E9
:1028E0004AF0EE0FFF1FBB1F661F771F881F915016
:1028F0005040A9F79E3F510580F00C9494140C941D
:10290000DF145F3FE4F3983ED4F38695779567959F
:10291000B795F795E7959F5FC1F7FE2B880F911D3F
:102920009695879597F9089597F99F6780E870E0E5
:1029300060E008959FEF80EC089500240A94161635
:10294000170618060906089500240A94121613069D
:10295000140605060895092E0394000C11F488232B
:1029600052F0BB0F40F4BF2B11F460FF04C06F5F47
:102970007F4F8F4F9F4F089557FD9058440F551F1D
:1029800059F05F3F71F04795880F97FB991F61F0F1
:102990009F3F79F087950895121613061406551F68
:1029A000F2CF4695F1DF08C0161617061806991FD4
:1029B000F1CF86957105610508940895E894BB27C9
:1029C00066277727CB0197F90895052E97FB1EF40C
:1029D00000940E94FC1457FD07D00E943B1507FC91
:1029E00003D04EF40C94FC145095409530952195ED
:1029F0003F4F4F4F5F4F089590958095709561952B
:102A00007F4F8F4F9F4F08952F923F924F925F922B
:102A10006F927F928F929F92AF92BF92CF92DF92EE
:102A2000EF92FF920F931F93CF93DF93CDB7DEB753
:102A3000CA1BDB0B0FB6F894DEBF0FBECDBF0994E7
:102A40002A88398848885F846E847D848C849B843E
:102A5000AA84B984C884DF80EE80FD800C811B814C
:102A6000AA81B981CE0FD11D0FB6F894DEBF0FBE7B
:102A7000CDBFED010895A1E21A2EAA1BBB1BFD01DB
:102A80000DC0AA1FBB1FEE1FFF1FA217B307E4074D
:102A9000F50720F0A21BB30BE40BF50B661F771FA5
:102AA000881F991F1A9469F7609570958095909585
:102AB0009B01AC01BD01CF010895A29FB001B39F5E
:102AC000C001A39F700D811D1124911DB29F700D37
:102AD000811D1124911D08955058BB27AA270E94DB
:102AE00084150C94AB140E949D1438F00E94A41419
:102AF00020F039F49F3F19F426F40C949A140EF444
:102B0000E095E7FB0C949414E92F0E94BC1458F351
:102B1000BA17620773078407950720F079F4A6F5C2
:102B20000C94DE140EF4E0950B2EBA2FA02D0B01A1
:102B3000B90190010C01CA01A0011124FF27591B02
:102B400099F0593F50F4503E68F11A16F040A22F08
:102B5000232F342F4427585FF3CF46953795279579
:102B6000A795F0405395C9F77EF41F16BA0B620B78
:102B7000730B840BBAF09150A1F0FF0FBB1F661FBF
:102B8000771F881FC2F70EC0BA0F621F731F841F02
:102B900048F4879577956795B795F7959E3F08F028
:102BA000B0CF9395880F08F09927EE0F97958795EA
:102BB00008950E94ED150C94AB140E94A41458F0D3
:102BC0000E949D1440F029F45F3F29F00C94941466
:102BD00051110C94DF140C949A140E94BC1468F3E5
:102BE0009923B1F3552391F3951B550BBB27AA27C6
:102BF00062177307840738F09F5F5F4F220F331F00
:102C0000441FAA1FA9F335D00E2E3AF0E0E832D0C7
:102C100091505040E695001CCAF72BD0FE2F29D0CA
:102C2000660F771F881FBB1F261737074807AB079C
:102C3000B0E809F0BB0B802DBF01FF2793585F4F11
:102C40003AF09E3F510578F00C9494140C94DF14E4
:102C50005F3FE4F3983ED4F3869577956795B795F3
:102C6000F7959F5FC9F7880F911D9695879597F9FE
:102C70000895E1E0660F771F881FBB1F6217730777
:102C80008407BA0720F0621B730B840BBA0BEE1F8C
:102C900088F7E09508950E94C41488F09F5798F033
:102CA000B92F9927B751B0F0E1F0660F771F881F51
:102CB000991F1AF0BA95C9F714C0B13091F00E946B
:102CC000DE14B1E008950C94DE14672F782F882766
:102CD000B85F39F0B93FCCF3869577956795B39592
:102CE000D9F73EF490958095709561957F4F8F4F01
:102CF0009F4F08950E94031408F48FEF08950E94D7
:102D00000314880B990B08950E945D15B7FF089571
:102D1000821B930B0895EE0FFF1F0590F491E02D99
:102D200009940F931F93CF93DF938230910510F492
:102D300082E090E0E091D203F091D30330E020E014
:102D4000B0E0A0E0309799F42115310509F44AC0AC
:102D5000281B390B24303105D8F58A819B816115F8
:102D6000710589F1FB0193838283FE0111C04081CB
:102D700051810281138148175907E0F0481759071C
:102D800099F4109761F012960C93129713961C9376
:102D90003296CF01DF91CF911F910F91089500934B
:102DA000D2031093D303F4CF2115310551F042170C
:102DB000530738F0A901DB019A01BD01DF01F801D9
:102DC000C1CFEF01F9CF9093D3038093D203CDCF3E
:102DD000FE01E20FF31F8193919322503109398351
:102DE0002883D7CF2091D0033091D103232B41F4F6
:102DF00020910201309103013093D1032093D0033D
:102E000020910001309101012115310541F42DB7C8
:102E10003EB74091040150910501241B350BE09110
:102E2000D003F091D103E217F307A0F42E1B3F0B60
:102E30002817390778F0AC014E5F5F4F241735072C
:102E400048F04E0F5F1F5093D1034093D0038193FE
:102E500091939FCFF0E0E0E09CCFCF93DF9300977A
:102E6000E9F0FC01329713821282A091D203B09153
:102E7000D303ED0130E020E01097A1F420813181EF
:102E8000820F931F2091D0033091D1032817390767
:102E900009F061C0F093D103E093D003DF91CF91AB
:102EA0000895EA01CE17DF07E8F54A815B819E01AC
:102EB00041155105B1F7E901FB83EA834991599125
:102EC000C40FD51FEC17FD0761F480819181029634
:102ED000840F951FE90199838883828193819B8365
:102EE0008A83F0E0E0E012968D919C911397009711
:102EF000B9F52D913C911197CD010296820F931F48
:102F00002091D0033091D1032817390739F6309733
:102F100051F51092D3031092D203B093D103A09332
:102F2000D003BCCFD383C28340815181840F951FCE
:102F3000C817D90761F44E5F5F4F88819981480FA8
:102F4000591F518340838A819B81938382832115FA
:102F5000310509F0B0CFF093D303E093D2039ECFB5
:102F6000FD01DC01C0CF13821282D7CFB0E0A0E018
:102F7000ECEBF7E10C9406158C01009751F4CB01B2
:102F80000E9491168C01C801CDB7DEB7E0E10C9428
:102F90002215FC01E60FF71F9C0122503109E217B0
:102FA000F30708F49DC0D901CD91DC911197C617A4
:102FB000D70798F0C530D10530F3CE0104978617B6
:102FC000970708F3C61BD70B2297C193D1936D9334
:102FD0007C93CF010E942D17D6CF5B01AC1ABD0A9E
:102FE0004C018C0E9D1EA091D203B091D303512CA5
:102FF000412CF12CE12C109731F58091D003909168
:10300000D1038815990509F05CC04616570608F0EB
:1030100058C08091000190910101009741F48DB753
:103020009EB74091040150910501841B950BE81750
:10303000F90708F055C0F093D103E093D003F901EC
:1030400071836083A0CF8D919C91119712966C90A3
:10305000129713967C901397A815B90559F56C0132
:1030600042E0C40ED11CCA14DB0420F1AC014A19A1
:103070005B09DA011296159780F0628273825183A0
:103080004083D9016D937C93E114F10471F0D70171
:103090001396FC93EE93129776CF22968C0F9D1F7A
:1030A000F90191838083F301EFCFF093D303E09391
:1030B000D20369CF4816590608F42C017D01D301CB
:1030C0009ACFCB010E9491167C01009749F0AE0186
:1030D000B8010E947318C8010E942D17870153CFB1
:1030E00010E000E050CFFB01DC0102C001900D9226
:1030F00041505040D8F70895FB01DC0101900D923A
:103100000020E1F7089510E0CFEDD0E004C0FE010B
:103110000E948B162196C03ED107C9F7F894FFCFC5
:103120000000D403800000004000140054000000A0
:103130000000D00330035D031D048E036C03800385
:1031400000000000DE04B104E006A304AA04A70402
:10315000A404000000000D063003E006A304690685
:103160007F06F5050000000013073003E006F405B4
:103170006E616E00696E66006F7666000D0A003043
:10318000333634303836363230004B68E1BB9F6915
:1031900020C491E1BB996E672053494D3830304CC3
:1031A0002E2E2E0041540041542B434D47463D31B5
:1031B000005761746572204C6576656C3A20002575
:1031C000004CE1BB976920C491E1BB8D632063E1B2
:1031D000BAA36D206269E1BABF6E20444854210051
:1031E00053656E736F72206572726F722100546541
:1031F0006D703A200020430048756D6964697479E8
:103200003A20004E6869E1BB877420C491E1BB9904
:103210003A2000C490E1BB9920E1BAA96D3A2000A0
:00000001FF
